:020000040000FA
:0400000076EF2CF07B
:1006000000766F6C74616765203A200063757272C2
:10061000656E74203A2000494E46004E414E0068F7
:1006200068580068686400696E6600686869006EF2
:10063000616E0068686E0068686F006868750068C1
:100640006878007A58007A64006C66007A69007AEB
:100650006E007A6F007A75007A7800256600410096
:0306600056000041
:1006640045C0D9FF46C0DAFFDECFF6FFDDCFF7FF86
:100674000800F550250AD8A442EF03F044EF03F034
:100684006BEF0DF045C0D9FF46C0DAFFDE2A000E3D
:10069400DD22000E0001EC6F000EEB6FEBC0EFF0FB
:1006A400ECC0F0F0ED69EE69000E9B6F000E9A6FDE
:1006B400A2EF03F0EF8145C0D9FF46C0DAFFDE2A7E
:1006C400000EDD22A2EF03F0EF835DEF03F0EF8570
:1006D4005DEF03F0EF875DEF03F0EF895DEF03F06B
:1006E400000E9B6F010E9A6FA2EF03F045C0D9FF75
:1006F40046C0DAFFDECFF6FFDDCFF7FF0800F55086
:10070400496E4A6A4A50000AD8B48BEF03F072EF7C
:1007140003F04950200AD8B46CEF03F0030AD8B4AC
:100724006FEF03F0080AD8B469EF03F0060AD8B4EF
:100734005CEF03F01D0AD8B466EF03F072EF03F028
:100744009A519B11D8B4A9EF03F0ABEF03F078EF03
:1007540003F0EFA1B0EF03F0B2EF03F0B3EF03F057
:10076400EF9345C0D9FF46C0DAFFDECFF6FFDDCFF9
:10077400F7FF0800F5502A0AD8A4C3EF03F0C5EF29
:1007840003F0EEEF03F045C0D9FF46C0DAFFDE2ADE
:10079400000EDD2247C0D9FF48C0DAFFDFCF49F0A1
:1007A400020EDE26DFCF4AF0000EDD2249C0D9FF5B
:1007B4004AC0DAFFDECFEBF0DDCFECF0ECBFE7EFC1
:1007C40003F0E5EF03F032EF04F0EF81EB6DEC1F83
:1007D400D8B0EC2B32EF04F045C0D9FF46C0DAFFA5
:1007E400DECF08F0DDCF09F0ADEC21F008C0EBF06E
:1007F40009C0ECF005EF04F045C0D9FF46C0DAFFAC
:10080400DE2A000EDD22D00E496EFF0E4A6E45C070
:10081400D9FF46C0DAFFDECFF6FFDDCFF7FF0800D1
:10082400F5504B6E4C6A49504B264A504C224C5062
:100834000AE10A0E4B5CD8A022EF04F025EF04F085
:10084400010E26EF04F0000E00019C6F9D6B9C517D
:100854009D11D8A430EF04F032EF04F0FEEF03F062
:1008640045C0D9FF46C0DAFFDECFF6FFDDCFF7FF84
:100874000800F5502E0AD8A442EF04F044EF04F027
:10088400C2EF04F0000EEE6F000EED6F45C0D9FF0D
:1008940046C0DAFFDE2A000EDD2245C0D9FF46C07D
:1008A400DAFFDECFF6FFDDCFF7FF0800F5502A0AA6
:1008B400D8A45FEF04F061EF04F07EEF04F045C0CC
:1008C400D9FF46C0DAFFDE2A000EDD2247C0D9FF79
:1008D40048C0DAFFDFCF49F0020EDE26DFCF4AF050
:1008E400000EDD2249C0D9FF4AC0DAFFDECFEDF0A9
:1008F400DDCFEEF0C2EF04F045C0D9FF46C0DAFF09
:10090400DECF08F0DDCF09F0ADEC21F008C0EDF04A
:1009140009C0EEF095EF04F045C0D9FF46C0DAFFF8
:10092400DE2A000EDD22D00E496EFF0E4A6E45C04F
:10093400D9FF46C0DAFFDECFF6FFDDCFF7FF0800B0
:10094400F5504B6E4C6A49504B264A504C224C5041
:100954000AE10A0E4B5CD8A0B2EF04F0B5EF04F044
:10096400010EB6EF04F0000E00019E6F9F6B9E51C6
:100974009F11D8A4C0EF04F0C2EF04F08EEF04F08E
:1009840045C0D9FF46C0DAFFDECFF6FFDDCFF7FF63
:100994000800F550076E086A4DEC2BF00750000173
:1009A400A66FA651D8B4D9EF04F0DBEF04F015EF2D
:1009B40005F045C0D9FF46C0DAFFDECF49F0DDCFF0
:1009C4004AF0010E4926000E4A2249C0F6FF4AC0E9
:1009D400F7FF0800F550076E086A4DEC2BF007503E
:1009E4000001A76FA751D8B4FAEF04F0FCEF04F0AC
:1009F40015EF05F045C0D9FF46C0DAFFDECF49F058
:100A0400DDCF4AF0020E4926000E4A2249C0F6FF05
:100A14004AC0F7FF0800F550076E086A4DEC2BF04A
:100A240007500001A86F45C0D9FF46C0DAFFDECFEA
:100A3400F6FFDDCFF7FF0800F550630AD8A425EFD1
:100A440005F027EF05F04EEF05F045C0D9FF46C08D
:100A5400DAFFDE2A000EDD2247C0D9FF48C0DAFFE4
:100A6400DFCF49F0020EDE26DFCF4AF0000EDD2292
:100A740049C0D9FF4AC0DAFFDF50B36F43C00AF060
:100A840044C00BF0B3C00CF0C5EC27F00AC043F02F
:100A94000BC044F086EF0DF045C0D9FF46C0DAFF25
:100AA400DECF01F0DDCF02F0230E036E060E046EDE
:100AB400000E066E030E056E3CEC25F0015002108C
:100AC400D8B467EF05F069EF05F084EF05F045C091
:100AD400D9FF46C0DAFFDECF01F0DDCF02F02B0EE6
:100AE400036E060E046E000E066E030E056E3CECDD
:100AF40025F001500210D8A482EF05F084EF05F030
:100B0400C5EF05F0030E45C0D9FF46C0DAFFDE2667
:100B1400000EDD2247C0D9FF48C0DAFFDFCF49F01D
:100B2400020EDE26DFCF4AF0000EDD2249C0D9FFD7
:100B34004AC0DAFFDF500001A96F000EA9BFFF0E03
:100B4400AA6FAB6FAC6FAD6FAE6FAF6FB06F43C0DA
:100B54001CF044C01DF0A9C01EF0AAC01FF0ABC019
:100B640020F0ACC021F0ADC022F0AEC023F0AFC085
:100B740024F0B0C025F0F5EC19F01CC043F01DC002
:100B840044F086EF0DF045C0D9FF46C0DAFFDECF52
:100B940001F0DDCF02F0240E036E060E046E000E8B
:100BA400066E020E056E3CEC25F001500210D8B41E
:100BB400DEEF05F0E0EF05F0FBEF05F045C0D9FFEF
:100BC40046C0DAFFDECF01F0DDCF02F02C0E036E5B
:100BD400060E046E000E066E020E056E3CEC25F049
:100BE40001500210D8A4F9EF05F0FBEF05F023EF54
:100BF40006F0020E45C0D9FF46C0DAFFDE26000E1D
:100C0400DD2247C0D9FF48C0DAFFDFCF49F0020E2A
:100C1400DE26DFCF4AF0000EDD2249C0D9FF4AC0EC
:100C2400DAFFDECFA9F0DDCFAAF00001000EAABFE3
:100C3400FF0EAB6FAC6FAD6FAE6FAF6FB06FA9EF60
:100C440005F045C0D9FF46C0DAFFDECFF6FFDDCFA1
:100C5400F7FF0800F550640AD8B433EF06F035EF17
:100C640006F047EF06F045C0D9FF46C0DAFFDECFF5
:100C7400F6FFDDCFF7FF0800F550690AD8A445EF69
:100C840006F047EF06F06EEF06F045C0D9FF46C008
:100C9400DAFFDE2A000EDD2247C0D9FF48C0DAFFA2
:100CA400DFCF49F0020EDE26DFCF4AF0000EDD2250
:100CB40049C0D9FF4AC0DAFFDECFA9F0DDCFAAF0E0
:100CC4000001000EAABFFF0EAB6FAC6FAD6FAE6F2D
:100CD400AF6FB06FA9EF05F045C0D9FF46C0DAFF8A
:100CE400DECF01F0DDCF02F0460E036E060E046E79
:100CF400000E066E020E056E3CEC25F0015002104B
:100D0400D8B487EF06F089EF06F0A4EF06F045C0EB
:100D1400D9FF46C0DAFFDECF01F0DDCF02F04C0E82
:100D2400036E060E046E000E066E020E056E3CEC9B
:100D340025F001500210D8A4A2EF06F0A4EF06F0AB
:100D4400CDEF06F0020E45C0D9FF46C0DAFFDE261D
:100D5400000EDD2247C0D9FF48C0DAFFDFCF49F0DB
:100D6400020EDE26DFCF4AF0000EDD2249C0D9FF95
:100D74004AC0DAFFDECF4BF0DDCF4CF04BC0A9F018
:100D84004CC0AAF00001AB6BAC6BAD6BAE6BAF6B40
:100D9400B06BA9EF05F0660E0001A619D8A4D5EF33
:100DA40006F0D7EF06F017EF07F045C0D9FF46C0AD
:100DB400DAFFDECFF6FFDDCFF7FF0800F5CFB3F0A3
:100DC40045C0D9FF46C0DAFFDE2A000EDD2247C047
:100DD400D9FF48C0DAFFDFCF49F0040EDE26DFCFAB
:100DE4004AF0000EDD2249C0D9FF4AC0DAFFDECF47
:100DF400A2F0DECFA3F0DECFA4F0DECFA5F043C097
:100E040034F044C035F0A2C036F0A3C037F0A4C01B
:100E140038F0A5C039F0B3C03AF087EC0DF034C017
:100E240043F035C044F086EF0DF0A60E016E000EBF
:100E3400026E490E036E060E046E000E066E020E5E
:100E4400056E3CEC25F001500210D8A42CEF07F0FD
:100E54002EEF07F0AAEF07F045C0D9FF46C0DAFF2E
:100E6400DECF49F0DDCF4AF0010E4926000E4A22BA
:100E740049C0F6FF4AC0F7FF0800F5CFB3F0BF0E34
:100E8400496EFF0E4A6E45C0D9FF46C0DAFFDECF79
:100E9400F6FFDDCFF7FF0800F5504B6E4C6A495062
:100EA4004B264A504C224C500AE11A0E4B5CD8A0F7
:100EB4005EEF07F061EF07F0010E62EF07F0000E3E
:100EC4000001A06FA16BA051A111D8B46CEF07F081
:100ED4006EEF07F088EF07F047C0D9FF48C0DAFF8C
:100EE400DFCF49F0040EDE26DFCF4AF0000EDD220C
:100EF40049C0D9FF4AC0DAFFDECFA2F0DECFA3F0AB
:100F0400DECFA4F0DECFA5F0A0EF07F047C0D9FFF5
:100F140048C0DAFFDFCF49F0040EDE26DFCF4AF007
:100F2400000EDD2249C0D9FF4AC0DAFFDECFA2F0AD
:100F3400DECFA3F0DECFA4F0DECFA5F0020E45C0D5
:100F4400D9FF46C0DAFFDE26000EDD2201EF07F0EE
:100F540045C0D9FF46C0DAFFDECF01F0DDCF02F095
:100F6400370E036E060E046E000E066E030E056E3B
:100F74003CEC25F001500210D8A4C3EF07F0C5EFF4
:100F840007F005EF08F0030E45C0D9FF46C0DAFFAD
:100F9400DE26000EDD2247C0D9FF48C0DAFFDFCFCE
:100FA40049F0020EDE26DFCF4AF0000EDD2249C0F2
:100FB400D9FF4AC0DAFFDF504B6E4B500001B46FCB
:100FC400B56BB66BB76BB86BB96BBA6BBB6B43C025
:100FD4001CF044C01DF0B4C01EF0B5C01FF0B6C074
:100FE40020F0B7C021F0B8C022F0B9C023F0BAC0D5
:100FF40024F0BBC025F0DBEC1FF01CC043F01DC087
:1010040044F086EF0DF045C0D9FF46C0DAFFDECFCD
:1010140001F0DDCF02F0380E036E060E046E000EF2
:10102400066E020E056E3CEC25F001500210D8A4A9
:101034001EEF08F020EF08F049EF08F0020E45C05B
:10104400D9FF46C0DAFFDE26000EDD2247C0D9FFF5
:1010540048C0DAFFDFCF49F0020EDE26DFCF4AF0C8
:10106400000EDD2249C0D9FF4AC0DAFFDECF4BF0C3
:10107400DDCF4CF04BC0B4F04CC0B5F00001B66B02
:10108400B76BB86BB96BBA6BBB6BE9EF07F045C0D4
:10109400D9FF46C0DAFFDECFF6FFDDCFF7FF080049
:1010A400F5506F0AD8A459EF08F05BEF08F083EF0E
:1010B40008F045C0D9FF46C0DAFFDE2A000EDD2263
:1010C40047C0D9FF48C0DAFFDFCF49F0020EDE2661
:1010D400DFCF4AF0000EDD2249C0D9FF4AC0DAFF53
:1010E400DECF4BF0DDCF4CF04BC0B4F04CC0B5F0CC
:1010F4000001B66BB76BB86BB96BBA6BBB6BE9EF3E
:1011040007F045C0D9FF46C0DAFFDECF01F0DDCFDE
:1011140002F0520E036E060E046E000E066E020EF0
:10112400056E3CEC25F001500210D8A49CEF08F0A9
:101134009EEF08F0C7EF08F0020E45C0D9FF46C085
:10114400DAFFDE26000EDD2247C0D9FF48C0DAFFF1
:10115400DFCF49F0020EDE26DFCF4AF0000EDD229B
:1011640049C0D9FF4AC0DAFFDECF4BF0DDCF4CF0E7
:101174004BC0B4F04CC0B5F00001B66BB76BB86BA4
:10118400B96BBA6BBB6BE9EF07F045C0D9FF46C03A
:10119400DAFFDECF01F0DDCF02F0330E036E060E70
:1011A400046E000E066E030E056E3CEC25F0015035
:1011B4000210D8A4E0EF08F0E2EF08F00AEF09F01B
:1011C400030E45C0D9FF46C0DAFFDE26000EDD223D
:1011D40047C0D9FF48C0DAFFDFCF49F0020EDE2650
:1011E400DFCF4AF0000EDD2249C0D9FF4AC0DAFF42
:1011F400DECFB1F0DDCFB2F0B1C0D9FFB2C0DAFFBB
:10120400E9C0DFFF000E446E000E436E86EF0DF062
:1012140045C0D9FF46C0DAFFDECF01F0DDCF02F0D2
:10122400340E036E060E046E000E066E020E056E7C
:101234003CEC25F001500210D8A423EF09F025EF6F
:1012440009F04BEF09F0020E45C0D9FF46C0DAFFA2
:10125400DE26000EDD2247C0D9FF48C0DAFFDFCF0B
:1012640049F0020EDE26DFCF4AF0000EDD2249C02F
:10127400D9FF4AC0DAFFDECFB1F0DDCFB2F0B1C0A2
:10128400D9FFB2C0DAFFE9C0DEFFEAC0DDFF04EF38
:1012940009F045C0D9FF46C0DAFFDECFF6FFDDCF47
:1012A400F7FF0800F5506E0AD8A45BEF09F05DEF74
:1012B40009F082EF09F045C0D9FF46C0DAFFDE2A03
:1012C400000EDD2247C0D9FF48C0DAFFDFCF49F066
:1012D400020EDE26DFCF4AF0000EDD2249C0D9FF20
:1012E4004AC0DAFFDECFB1F0DDCFB2F0B1C0D9FF32
:1012F400B2C0DAFFE9C0DEFFEAC0DDFF04EF09F0A7
:1013040045C0D9FF46C0DAFFDECF01F0DDCF02F0E1
:101314004F0E036E060E046E000E066E020E056E70
:101324003CEC25F001500210D8A49BEF09F09DEF8E
:1013340009F0C3EF09F0020E45C0D9FF46C0DAFF39
:10134400DE26000EDD2247C0D9FF48C0DAFFDFCF1A
:1013540049F0020EDE26DFCF4AF0000EDD2249C03E
:10136400D9FF4AC0DAFFDECFB1F0DDCFB2F0B1C0B1
:10137400D9FFB2C0DAFFE9C0DEFFEAC0DDFF04EF47
:1013840009F045C0D9FF46C0DAFFDECFF6FFDDCF56
:10139400F7FF0800F550700AD8A4D3EF09F0D5EF91
:1013A40009F019EF0AF045C0D9FF46C0DAFFDE2A7A
:1013B400000EDD2247C0D9FF48C0DAFFDFCF49F075
:1013C400020EDE26DFCF4AF0000EDD2249C0D9FF2F
:1013D4004AC0DAFFDECF4BF0DDCF4CF04BC0B4F0A7
:1013E4004CC0B5F00001B66BB76BB86BB96BBA6B98
:1013F400BB6B43C01CF044C01DF0B4C01EF0B5C0AC
:101404001FF0B6C020F0B7C021F0B8C022F0B9C0B8
:1014140023F0BAC024F0BBC025F0780E266E67EC2A
:101424001BF01CC043F01DC044F086EF0DF045C016
:10143400D9FF46C0DAFFDECFF6FFDDCFF7FF0800A5
:10144400F550730AD8A429EF0AF02BEF0AF056EFEF
:101454000AF045C0D9FF46C0DAFFDE2A000EDD22BD
:1014640047C0D9FF48C0DAFFDFCF49F0020EDE26BD
:10147400DFCF4AF0000EDD2249C0D9FF4AC0DAFFAF
:10148400DECF98F0DDCF99F043C00AF044C00BF0F2
:1014940098C00CF099C00DF039EC23F00AC043F069
:1014A4000BC044F086EF0DF045C0D9FF46C0DAFF0B
:1014B400DECF01F0DDCF02F03B0E036E060E046EAC
:1014C400000E066E030E056E3CEC25F00150021072
:1014D400D8A46FEF0AF071EF0AF0B1EF0AF0030E2F
:1014E40045C0D9FF46C0DAFFDE26000EDD2247C024
:1014F400D9FF48C0DAFFDFCF49F0020EDE26DFCF86
:101504004AF0000EDD2249C0D9FF4AC0DAFFDF509D
:101514004B6E4B500001B46FB56BB66BB76BB86BC9
:10152400B96BBA6BBB6B43C01CF044C01DF0B4C0B4
:101534001EF0B5C01FF0B6C020F0B7C021F0B8C08F
:1015440022F0B9C023F0BAC024F0BBC025F0DDEC12
:101554001DF01CC043F01DC044F086EF0DF045C0E3
:10156400D9FF46C0DAFFDECF01F0DDCF02F03C0E3A
:10157400036E060E046E000E066E020E056E3CEC43
:1015840025F001500210D8A4CAEF0AF0CCEF0AF0FB
:10159400F5EF0AF0020E45C0D9FF46C0DAFFDE2699
:1015A400000EDD2247C0D9FF48C0DAFFDFCF49F083
:1015B400020EDE26DFCF4AF0000EDD2249C0D9FF3D
:1015C4004AC0DAFFDECF4BF0DDCF4CF04BC0B4F0B5
:1015D4004CC0B5F00001B66BB76BB86BB96BBA6BA6
:1015E400BB6B95EF0AF045C0D9FF46C0DAFFDECFEA
:1015F400F6FFDDCFF7FF0800F550750AD8A405EF14
:101604000BF007EF0BF02FEF0BF045C0D9FF46C0EE
:10161400DAFFDE2A000EDD2247C0D9FF48C0DAFF18
:10162400DFCF49F0020EDE26DFCF4AF0000EDD22C6
:1016340049C0D9FF4AC0DAFFDECF4BF0DDCF4CF012
:101644004BC0B4F04CC0B5F00001B66BB76BB86BCF
:10165400B96BBA6BBB6B95EF0AF045C0D9FF46C0B6
:10166400DAFFDECF01F0DDCF02F0550E036E060E79
:10167400046E000E066E020E056E3CEC25F0015061
:101684000210D8A448EF0BF04AEF0BF073EF0BF005
:10169400020E45C0D9FF46C0DAFFDE26000EDD2269
:1016A40047C0D9FF48C0DAFFDFCF49F0020EDE267B
:1016B400DFCF4AF0000EDD2249C0D9FF4AC0DAFF6D
:1016C400DECF4BF0DDCF4CF04BC0B4F04CC0B5F0E6
:1016D4000001B66BB76BB86BB96BBA6BBB6B95EFAC
:1016E4000AF045C0D9FF46C0DAFFDECF01F0DDCFF6
:1016F40002F03F0E036E060E046E000E066E030E1D
:10170400056E3CEC25F001500210D8B48CEF0BF0C0
:101714008EEF0BF0A9EF0BF045C0D9FF46C0DAFFFE
:10172400DECF01F0DDCF02F01F0E036E060E046E55
:10173400000E066E030E056E3CEC25F001500210FF
:10174400D8A4A7EF0BF0A9EF0BF0FEEF0BF045C008
:10175400D9FF46C0DAFFDECF49F0DDCF4AF0020EF2
:101764004926000E4A2249C0F6FF4AC0F7FF080086
:10177400F5CFB3F0030E45C0D9FF46C0DAFFDE262D
:10178400000EDD2247C0D9FF48C0DAFFDFCF49F0A1
:10179400020EDE26DFCF4AF0000EDD2249C0D9FF5B
:1017A4004AC0DAFFDF504B6E4B500001B46FB56B8B
:1017B400B66BB76BB86BB96BBA6BBB6B43C01CF041
:1017C40044C01DF0B4C01EF0B5C01FF0B6C020F078
:1017D400B7C021F0B8C022F0B9C023F0BAC024F0D9
:1017E400BBC025F0B3C026F067EC1BF01CC043F06F
:1017F4001DC044F086EF0DF045C0D9FF46C0DAFFA6
:10180400DECF01F0DDCF02F0400E036E060E046E53
:10181400000E066E020E056E3CEC25F0015002101F
:10182400D8B417EF0CF019EF0CF034EF0CF045C0FE
:10183400D9FF46C0DAFFDECF01F0DDCF02F0200E83
:10184400036E060E046E000E066E020E056E3CEC70
:1018540025F001500210D8A432EF0CF034EF0CF054
:1018640070EF0CF045C0D9FF46C0DAFFDECF49F077
:10187400DDCF4AF0010E4926000E4A2249C0F6FF88
:101884004AC0F7FF0800F5CFB3F0020E45C0D9FFF8
:1018940046C0DAFFDE26000EDD2247C0D9FF48C06D
:1018A400DAFFDFCF49F0020EDE26DFCF4AF0000E6A
:1018B400DD2249C0D9FF4AC0DAFFDECF4BF0DDCFCD
:1018C4004CF04BC0B4F04CC0B5F00001B66BB76B34
:1018D400B86BB96BBA6BBB6BE0EF0BF045C0D9FFCB
:1018E40046C0DAFFDECFF6FFDDCFF7FF0800F55084
:1018F400780AD8B480EF0CF082EF0CF094EF0CF07F
:1019040045C0D9FF46C0DAFFDECFF6FFDDCFF7FFD3
:101914000800F550580AD8A492EF0CF094EF0CF09C
:10192400C7EF0CF045C0D9FF46C0DAFFDECFF6FFA3
:10193400DDCFF7FF0800F5CFB3F045C0D9FF46C0AF
:10194400DAFFDE2A000EDD2247C0D9FF48C0DAFFE5
:10195400DFCF49F0020EDE26DFCF4AF0000EDD2293
:1019640049C0D9FF4AC0DAFFDECF4BF0DDCF4CF0DF
:101974004BC0B4F04CC0B5F00001B66BB76BB86B9C
:10198400B96BBA6BBB6BE0EF0BF045C0D9FF46C037
:10199400DAFFDECF01F0DDCF02F0580E036E060E43
:1019A400046E000E066E020E056E3CEC25F001502E
:1019B4000210D8B4E0EF0CF0E2EF0CF0FDEF0CF005
:1019C40045C0D9FF46C0DAFFDECF01F0DDCF02F01B
:1019D400430E036E060E046E000E066E020E056EB6
:1019E4003CEC25F001500210D8A4FBEF0CF0FDEF05
:1019F4000CF039EF0DF045C0D9FF46C0DAFFDECF59
:101A040049F0DDCF4AF0010E4926000E4A2249C0B2
:101A1400F6FF4AC0F7FF0800F5CFB3F0020E45C049
:101A2400D9FF46C0DAFFDE26000EDD2247C0D9FF0B
:101A340048C0DAFFDFCF49F0020EDE26DFCF4AF0DE
:101A4400000EDD2249C0D9FF4AC0DAFFDECF4BF0D9
:101A5400DDCF4CF04BC0B4F04CC0B5F00001B66B18
:101A6400B76BB86BB96BBA6BBB6BE0EF0BF045C0EF
:101A7400D9FF46C0DAFFDECFF6FFDDCFF7FF08005F
:101A8400F550250AD8A449EF0DF04BEF0DF062EFA5
:101A94000DF045C0D9FF46C0DAFFDE2A000EDD2274
:101AA400000E026E250E016E43C003F044C004F024
:101AB40099EC28F0000E446E010E436E86EF0DF093
:101AC40045C0D9FF46C0DAFFDE2A000EDD2204EF4E
:101AD40009F045C0D9FF46C0DAFFDECFF6FFDDCFFF
:101AE400F7FF0800F550016E026A43C003F044C0DA
:101AF40004F099EC28F045C0D9FF46C0DAFFDE2A8D
:101B0400000EDD225CEF0DF01200000E00017B6F71
:101B1400000E7A6F36C08CF037C08DF038C08EF06E
:101B240039C08FF08FBF9BEF0DF099EF0DF0B1EF3F
:101B34000DF0000E7B6F010E7A6F8CC001F08DC02A
:101B440002F08EC003F08FC004F00DEC2DF001C044
:101B54008CF002C08DF003C08EF004C08FF0000E34
:101B64000001936F000E926FEBC07EF0ECC07FF02B
:101B74007A517B11D8A4C1EF0DF0C3EF0DF0CAEF79
:101B84000DF0EFA5C8EF0DF0CAEF0DF0E4EF0DF086
:101B94007A517B11D8A4D1EF0DF0D3EF0DF0D9EF2A
:101BA4000DF0000E616F2B0E606FDDEF0DF0000E77
:101BB400616F2D0E606F60C000F1924B932B7E0716
:101BC400D8A07F078CC001F08DC002F08EC003F056
:101BD4008FC004F0CEEC26F001040210D8A4F5EF77
:101BE4000DF0F7EF0DF04EEF0EF0BF0E3B6EFF0E53
:101BF4003C6E3A503D6E3E6A3B503D263C503E2280
:101C04003E500AE11A0E3D5CD8A00BEF0EF00EEF29
:101C14000EF0010E0FEF0EF0000E0001626F636B09
:101C240062516311D8B419EF0EF01BEF0EF029EFD7
:101C34000EF0000E9225016E010E9321026E170E16
:101C4400036E060E046EACEC2BF035EF0EF0000EB6
:101C54009225016E010E9321026E270E036E060E6D
:101C6400046EACEC2BF00001FD0E7E27FF0E7F23EB
:101C740034C011F035C012F0000E136E010E146E54
:101C84007EC015F07FC016F0FEEC28F011C034F0D1
:101C940012C035F0B2EF13F08CC001F08DC002F029
:101CA4008EC003F08FC004F0CEEC26F00150021079
:101CB400D8A45FEF0EF061EF0EF0A1EF0EF0BF0EAF
:101CC4003B6EFF0E3C6E3A503D6E3E6A3B503D26E5
:101CD4003C503E223E500AE11A0E3D5CD8A075EFFE
:101CE4000EF078EF0EF0010E79EF0EF0000E000109
:101CF400646F656B64516511D8B483EF0EF085EFA2
:101D04000EF093EF0EF0000E9225016E010E93215A
:101D1400026E1B0E036E060E046EACEC2BF035EF58
:101D24000EF0000E9225016E010E9321026E2F0E0D
:101D3400036E060E046EACEC2BF035EF0EF0000EC5
:101D44000001946F000E956F800E966F3F0E976F93
:101D5400000E916F000E906F8CC001F08DC002F0E8
:101D64008EC003F08FC004F0000E056E000E066EE8
:101D7400000E076E000E086E1BEC2AF0D8B0C5EFFB
:101D84000EF0C7EF0EF04AEF0FF0E6EF0EF094C03E
:101D94000FF095C010F096C011F097C012F0000E2D
:101DA400136E000E146E200E156E410E166E13EC9B
:101DB40016F00FC094F010C095F011C096F012C048
:101DC40097F00001904B912B8CC028F08DC029F026
:101DD4008EC02AF08FC02BF0000E136E000E146E0E
:101DE400200E156E410E166E94C00FF095C010F0C3
:101DF40096C011F097C012F013EC16F00FC02CF03F
:101E040010C02DF011C02EF012C02FF04CEC26F0B3
:101E1400D8B00FEF0FF011EF0FF0C9EF0EF031EF64
:101E24000FF094C001F095C002F096C003F097C083
:101E340004F0000E056E000E066E200E076E410EB5
:101E4400086E28EC18F001C094F002C095F003C0AD
:101E540096F004C097F000019007D8A091078CC0B9
:101E640028F08DC029F08EC02AF08FC02BF094C0CA
:101E74002CF095C02DF096C02EF097C02FF04CECAE
:101E840026F0D8A048EF0FF04AEF0FF013EF0FF051
:101E94003AC007F0086A4DEC2BF007500001816F3F
:101EA40081C080F0670E8119D8A45BEF0FF05DEF5D
:101EB4000FF083EF0FF0ED51EE11D8A464EF0FF0A3
:101EC40066EF0FF06AEF0FF0000EEE6F010EED6F8C
:101ED400EEBF77EF0FF0EE5106E1ED05D8B075EFE8
:101EE4000FF077EF0FF07DEF0FF0000E7D6F060E11
:101EF4007C6F8CEF0FF0EDC07CF0EEC07DF08CEFCA
:101F04000FF0EEBF88EF0FF08AEF0FF077EF0FF0CE
:101F14007DEF0FF0670E8119D8A493EF0FF095EFC2
:101F24000FF0C4EF0FF091AFA3EF0FF0FC0E905D34
:101F3400FF0E9159D8A0A1EF0FF0A3EF0FF0C2EF5D
:101F44000FF0FF0E3B6EFF0E3C6E7CC03DF07DC07B
:101F54003EF03B503D263C503E2290513D5C3E506D
:101F6400800A3F6E9151800A3F58D8A0BCEF0FF011
:101F7400BEEF0FF0C2EF0FF0660E806FC4EF0FF0EC
:101F8400650E806F7CC072F07DC073F0670E81199E
:101F9400D8A4CFEF0FF0D1EF0FF0E1EF0FF0660E02
:101FA4008019D8A4D8EF0FF0DAEF0FF0E3EF0FF0B9
:101FB40091BFE1EF0FF0DFEF0FF0E3EF0FF0724BA3
:101FC400732B660E8019D8A4EAEF0FF0ECEF0FF034
:101FD4000CEF10F091BFF3EF0FF0F1EF0FF0FFEF04
:101FE4000FF0000E946F000E956F800E966F3F0EEB
:101FF400976F000E916F000E906F670E8119D8B421
:1020040006EF10F008EF10F00CEF10F0905172276B
:1020140091517323000E8B6F000E8A6F8CC082F077
:102024008DC083F08EC084F08FC085F094C074F0AE
:1020340095C075F096C076F097C077F09DEF10F0DC
:1020440082C001F083C002F084C003F085C004F0B4
:1020540094C005F095C006F096C007F097C008F04C
:1020640028EC18F001C01AF002C01BF003C01CF0E9
:1020740004C01DF0D4EC1CF01AC086F01BC087F01D
:102084001CC088F01DC089F086C001F087C002F032
:1020940088C003F089C004F0C9EC25F001C078F0D1
:1020A40002C079F082C028F083C029F084C02AF0ED
:1020B40085C02BF094C013F095C014F096C015F0B1
:1020C40097C016F086C00FF087C010F088C011F0DA
:1020D40089C012F013EC16F00FC02CF010C02DF0D4
:1020E40011C02EF012C02FF031EC2CF028C082F079
:1020F40029C083F02AC084F02BC085F094C001F07D
:1021040095C002F096C003F097C004F0000E056E6F
:10211400000E066E200E076E410E086E28EC18F0B5
:1021240001C094F002C095F003C096F004C097F08B
:1021340000018A4B8B2B72518A5D8B51800A3B6E56
:102144007351800A3B58D8A0AAEF10F0ACEF10F0FE
:1021540022EF10F094C00FF095C010F096C011F06B
:1021640097C012F0000E136E000E146EA00E156EC2
:10217400400E166E13EC16F00FC086F010C087F0F8
:1021840011C088F012C089F082C028F083C029F001
:1021940084C02AF085C02BF086C02CF087C02DF0B7
:1021A40088C02EF089C02FF04CEC26F0D8B0DDEFBB
:1021B40010F0DFEF10F0EAEF10F0000E0001866F70
:1021C400000E876F000E886F000E896F13EF11F0F9
:1021D40082C001F083C002F084C003F085C004F023
:1021E40086C005F087C006F088C007F089C008F0F3
:1021F4001BEC2AF0D8A001EF11F003EF11F013EF5C
:1022040011F0000178B109EF11F00BEF11F013EFA9
:1022140011F0000E866F000E876F000E886F000E9F
:10222400896F8CC001F08DC002F08EC003F08FC0A6
:1022340004F086C005F087C006F088C007F089C0A6
:1022440008F0B3EC13F001C082F002C083F003C0C5
:1022540084F004C085F082C028F083C029F084C0D3
:102264002AF085C02BF0000E136E000E146E200EA3
:10227400156E410E166E74C00FF075C010F076C066
:1022840011F077C012F013EC16F00FC02CF010C050
:102294002DF011C02EF012C02FF04CEC26F0D8A077
:1022A40056EF11F058EF11F081EF11F00001904B4F
:1022B400912B74C00FF075C010F076C011F077C088
:1022C40012F0000E136E000E146E200E156E410EE9
:1022D400166E13EC16F00FC074F010C075F011C038
:1022E40076F012C077F0660E00018019D8A47DEF55
:1022F40011F07FEF11F081EF11F0724B732B74C06A
:1023040094F075C095F076C096F077C097F0650E9E
:1023140000018019D8B491EF11F093EF11F099EF07
:1023240011F090C070F091C071F09DEF11F0000EAB
:10233400716F000E706F000E6F6F000E6E6F000EE7
:102344006D6F000E6C6F000E8B6F000E8A6F98EF2E
:1023540012F082C001F083C002F084C003F085C093
:1023640004F094C005F095C006F096C007F097C03D
:1023740008F028EC18F001C01AF002C01BF003C0EA
:102384001CF004C01DF0D4EC1CF01AC086F01BC075
:1023940087F01CC088F01DC089F086C001F087C09A
:1023A40002F088C003F089C004F0C9EC25F001C034
:1023B40078F002C079F00001EFB9E3EF11F0E5EF36
:1023C40011F002EF12F078517911D8A4ECEF11F06A
:1023D400EEEF11F002EF12F0670E8119D8A4F5EFB9
:1023E40011F0F7EF11F002EF12F071BFFEEF11F0F0
:1023F400FCEF11F002EF12F06C4B6D2B4CEF12F06E
:102404006E516F11D8A409EF12F00BEF12F035EFF3
:1024140012F071BF12EF12F010EF12F035EF12F05C
:10242400000E9225D96E010E9321DA6E2E0EDF6E08
:10243400924B932B7E07D8A07F07000E6F6F010E7F
:102444006E6F35EF12F0000E9225D96E010E9321B6
:10245400DA6E300EDF6E924B932B7E07D8A07F0787
:102464006C07D8A06D076C516D11D8A43CEF12F025
:102474003EEF12F025EF12F0000E9225D96E010EF8
:102484009321DA6E7851300FDF6E924B932B7E07D7
:10249400D8A07F0782C028F083C029F084C02AF026
:1024A40085C02BF094C013F095C014F096C015F0BD
:1024B40097C016F086C00FF087C010F088C011F0E6
:1024C40089C012F013EC16F00FC02CF010C02DF0E0
:1024D40011C02EF012C02FF031EC2CF028C082F085
:1024E40029C083F02AC084F02BC085F094C001F089
:1024F40095C002F096C003F097C004F0000E056E7C
:10250400000E066E200E076E410E086E28EC18F0C1
:1025140001C094F002C095F003C096F004C097F097
:1025240000017007D8A071078A4B8B2B72518A5D0A
:102534008B51800A3B6E7351800A3B58D8B0A5EF8B
:1025440012F0A7EF12F0B5EF12F093BFB3EF12F051
:10255400935109E14B0E925DD8A0B3EF12F0B5EFA1
:1025640012F0ABEF11F06E516F11D8A4BCEF12F062
:10257400BEEF12F0CFEF12F0EFA9C3EF12F0C5EFE8
:1025840012F0CFEF12F0000E9225D96E010E9321B6
:10259400DA6E2E0EDF6E924B932B000E9225D96EBF
:1025A400010E9321DA6E000EDF6E650E8019D8A439
:1025B400DEEF12F0E0EF12F03AEF0EF0000E8B6F48
:1025C4004F0E8A6F000E8A25D96E010E8B21DA6EAA
:1025D400000EDF6E000E7B6F000E7A6F91BFF7EF77
:1025E40012F0F5EF12F0FFEF12F0000E7B6F010E08
:1025F4007A6F906D911FD8B0912B000E7D6F020EF3
:102604007C6F30EF13F08A07D8A08B07000E8A2561
:10261400D96E010E8B21DA6E90C001F091C002F0E8
:10262400000E046E0A0E036EC3EC29F00150300F45
:10263400DF6E90C001F091C002F0000E046E0A0E2D
:10264400036E61EC29F001C090F002C091F000012A
:102654007C07D8A07D077E07D8A07F0790519111F1
:10266400D8A437EF13F039EF13F005EF13F07DBF63
:1026740046EF13F07D5106E17C05D8B044EF13F02A
:1026840046EF13F005EF13F08A07D8A08B077A51B1
:102694007B11D8A450EF13F052EF13F058EF13F05E
:1026A400000E676F2B0E666F5CEF13F0000E676F02
:1026B4002D0E666F000E8A25D96E010E8B21DA6EFF
:1026C40066C0DFFF7E07D8A07F078A07D8A08B07E4
:1026D400BF0E3B6EFF0E3C6E3A503D6E3E6A3B5061
:1026E4003D263C503E223E500AE11A0E3D5CD8A0E5
:1026F4007EEF13F081EF13F0010E82EF13F0000E62
:102704006A6F6B6B6A516B11D8A48BEF13F08DEF6A
:1027140013F093EF13F0000E696F650E686F97EF77
:1027240013F0000E696F450E686F000E8A25D96E8E
:10273400010E8B21DA6E68C0DFFF7E07D8A07F0709
:10274400000E9225016E010E9321026E000E8A2561
:10275400036E010E8B21046EACEC2BF03AEF0EF0FD
:1027640012000450800B0D6E045004240F6E03AE4F
:10277400BEEF13F0C0EF13F0C1EF13F00F800F5052
:10278400D8B4C7EF13F0C9EF13F0DEEF13F00F283E
:10279400D8A4CFEF13F0D1EF13F0D9EF13F0000E5C
:1027A400016E000E026E000E036E000E046E038EA8
:1027B400000E046EE6EF13F0000E016E000E026EC2
:1027C400000E036E000E046E0850800B0E6E0D504A
:1027D4000E18D8B4F0EF13F0F2EF13F0F3EF13F098
:1027E4000D8C085008240E6E07AEFBEF13F0FDEFBE
:1027F40013F0FEEF13F00E800E50D8B404EF14F073
:1028040006EF14F01BEF14F00E28D8A40CEF14F00C
:102814000EEF14F016EF14F0000E056E000E066EA7
:10282400000E076E000E086E078E000E086E23EF72
:1028340014F0000E056E000E066E000E076E000EFC
:10284400086E0F500E5CD8B02AEF14F02CEF14F081
:1028540053EF14F00DAC31EF14F033EF14F035EF07
:1028640014F0800E0D1A0FC010F00EC00FF010C03F
:102874000EF001C010F005C001F010C005F002C058
:1028840010F006C002F010C006F003C010F007C03C
:1028940003F010C007F004C010F008C004F010C02A
:1028A40008F0000E106E0F500EC009F00A6A095E9F
:1028B400000E0A5A0ABE68EF14F00A5009E11A0E13
:1028C400095CD8A068EF14F06AEF14F0A1EF14F0DB
:1028D4000150021003100410D8A473EF14F076EF23
:1028E40014F0010E77EF14F0000E106E000E016E5E
:1028F400000E026E000E036E000E046E0EC00FF08A
:10290400AAEF14F010A089EF14F08BEF14F091EFFC
:1029140014F0D89010300109106E93EF14F0D89091
:10292400103201A098EF14F09AEF14F09BEF14F01A
:10293400108E043404320332023201320F2A0E5054
:102944000F5CD8A0A8EF14F0AAEF14F084EF14F0F1
:102954000DBCAFEF14F0B1EF14F0F1EF14F00F5021
:10296400D8A4B7EF14F0B9EF14F0C3EF14F0000ECD
:10297400016E000E026E000E036E000E046E12EF66
:1029840016F0055001260650022207500322085073
:10299400042204A0D0EF14F0D2EF14F07EEF15F06F
:1029A40010A0D7EF14F0D9EF14F0DFEF14F0D890A3
:1029B40010300109106EE1EF14F0D890103201A02C
:1029C400E6EF14F0E8EF14F0E9EF14F0108E04349D
:1029D40004320332023201320F2A7EEF15F0055021
:1029E400015C06500258075003580450800A096ECF
:1029F4000850800A0958D8B002EF15F004EF15F01A
:102A04002FEF15F00150055C096E025006580A6E4E
:102A1400035007580B6E045008580C6EFF0E09241F
:102A2400016EFF0E0A20026EFF0E0B20036EFF0ED6
:102A34000C20046E800E0D1A106C1050D8A425EFD3
:102A440015F027EF15F037EF15F0010E0126000EF3
:102A540002220322042237EF15F00550015E0650CE
:102A6400025A0750035A0850045A01500210031026
:102A74000410D8A440EF15F042EF15F077EF15F0ED
:102A84001050D8A448EF15F04AEF15F077EF15F081
:102A9400000E016E000E026E000E036E000E046E38
:102AA40012EF16F0D890013602360336043610AE13
:102AB4005EEF15F060EF15F061EF15F0018010A0E6
:102AC40066EF15F068EF15F06CEF15F0D88010364E
:102AD4006EEF15F0D89010360F50D8B474EF15F08F
:102AE40076EF15F077EF15F00F0603AE7CEF15F0D7
:102AF4007EEF15F054EF15F0000E0E6E10AE85EF5C
:102B040015F087EF15F09FEF15F010C009F07F0E58
:102B14000916D8B490EF15F092EF15F096EF15F072
:102B2400010E0E6E9FEF15F001A09BEF15F09DEFC7
:102B340015F09FEF15F092EF15F00E50D8B4A5EFF5
:102B440015F0A7EF15F0D2EF15F0010E0126000ED7
:102B540002220322042204A0B2EF15F0B4EF15F010
:102B6400D2EF15F001C009F002C00AF003C00BF067
:102B740004C00CF00C340C320B320A32093209C096
:102B840001F00AC002F00BC003F00CC004F00F28DF
:102B9400D8B4CFEF15F0D1EF15F0D2EF15F00F2A1E
:102BA4000F28D8B4D8EF15F0DAEF15F0E2EF15F0EE
:102BB4000F50D8A4E0EF15F0E2EF15F0F4EF15F0A4
:102BC400000E016E000E026E000E036E000E046E07
:102BD4000F50D8A4F0EF15F0F2EF15F0F4EF15F064
:102BE400000E0D6E0FA0F9EF15F0FBEF15F0FEEFE0
:102BF40015F0038EFFEF15F0039ED8900F30046E8E
:102C04000DAE07EF16F009EF16F00AEF16F0048E7A
:102C140001C001F002C002F003C003F004C004F0DC
:102C240012001250800B1B6E12501224216E11AE32
:102C34001EEF16F020EF16F021EF16F02180215040
:102C4400D8B427EF16F029EF16F03CEF16F0212840
:102C5400D8A42FEF16F031EF16F039EF16F0000E6E
:102C64000F6E000E106E000E116E000E126E118E9D
:102C740044EF16F0000E0F6E000E106E000E116E73
:102C8400000E126E1650800B1B1A16501624206E5E
:102C940015AE4FEF16F051EF16F052EF16F02080FC
:102CA4002050D8B458EF16F05AEF16F06DEF16F026
:102CB4002028D8A460EF16F062EF16F06AEF16F041
:102CC400000E136E000E146E000E156E000E166EBE
:102CD400158E75EF16F0000E136E000E146E000EB6
:102CE400156E000E166E2050D8B47BEF16F07DEFF3
:102CF40016F085EF16F02150D8A483EF16F085EF77
:102D040016F08FEF16F0000E0F6E000E106E000E10
:102D1400116E000E126E27EF18F015500F02F3CF4C
:102D240026F0F4CF27F026501C6E1D6A1E6A1F6A17
:102D34002750226E236A246A256A14501002F3CFA6
:102D440026F0F4CF27F026501C26000E1D221E224A
:102D54001F2227502226000E23222422252213502C
:102D64001102F3CF26F0F4CF27F026501C26000ED4
:102D74001D221E221F2227502226000E2322242237
:102D840025221EC01FF01DC01EF01CC01DF01C6AB1
:102D940013501002F3CF26F0F4CF27F026501C2650
:102DA40027501D22000E1E22000E1F2214500F0257
:102DB400F3CF26F0F4CF27F026501C2627501D22EF
:102DC400000E1E22000E1F221EC01FF01DC01EF08A
:102DD4001CC01DF01C6A13500F02F3CF26F0F4CF71
:102DE40027F026501C2627501D22000E1E22000EFE
:102DF4001F2215501002F3CF26F0F4CF27F02650EF
:102E0400222627502322000E2422000E25221450AD
:102E14001102F3CF26F0F4CF27F0265022262750B4
:102E24002322000E2422000E252215501102F3CF76
:102E340026F0F4CF27F02650176E2750186E196A23
:102E44001A6A19C01AF018C019F017C018F0176AD6
:102E54001750222618502322195024221A502522B2
:102E64001CC017F01DC018F01EC019F01FC01AF0C6
:102E7400190E42EF17F0D8901A321932183217325D
:102E8400E82E3DEF17F01750222618502322195030
:102E940024221A5025221EC01FF01DC01EF01CC083
:102EA4001DF01C6A205021C017F0186A1726000E66
:102EB4001822820E1724266EFF0E1820276E78EF34
:102EC40017F0D89022362336243625361FAE6DEF00
:102ED40017F06FEF17F070EF17F02280D8901C36C0
:102EE4001D361E361F362606D8A0270624AE7DEFD3
:102EF40017F07FEF17F063EF17F0000E206E1FAE90
:102F040086EF17F088EF17F0ACEF17F0FF0E1C14E4
:102F1400176EFF0E1D14186EFF0E1E14196E7F0E11
:102F24001F141A6E1750181019101A10D8B49DEFE8
:102F340017F09FEF17F0A3EF17F0010E206EACEF20
:102F440017F022A0A8EF17F0AAEF17F0ACEF17F0D4
:102F54009FEF17F02050D8B4B2EF17F0B4EF17F08A
:102F6400D8EF17F0010E2226000E23222422252258
:102F740025A0BFEF17F0C1EF17F0D8EF17F022C06C
:102F840017F023C018F024C019F025C01AF01A3421
:102F94001A3219321832173217C022F018C023F02F
:102FA40019C024F01AC025F0264A272A27BEE3EFC9
:102FB40017F0275008E12628D8A0E3EF17F0E5EF33
:102FC40017F0EFEF17F0000E226E000E236E800E46
:102FD400246E7F0E256E1DEF18F027BEFCEF17F050
:102FE400275006E12604D8B0FAEF17F0FCEF17F0EB
:102FF40008EF18F0000E226E000E236E000E246EF1
:10300400000E256E000E1B6E1DEF18F026C021F079
:10301400FF0E2216FF0E23167F0E2416000E251611
:1030240021A017EF18F019EF18F01AEF18F0248EFA
:10303400D8902130256E1B50251222C00FF023C0DA
:1030440010F024C011F025C012F012000450800BBF
:10305400116E04500424186E03AE33EF18F035EFEC
:1030640018F036EF18F018801850D8B43CEF18F068
:103074003EEF18F053EF18F01828D8A444EF18F0D6
:1030840046EF18F04EEF18F0000E016E000E026EBF
:10309400000E036E000E046E038E000E046E5BEFD2
:1030A40018F0000E016E000E026E000E036E000E8C
:1030B400046E0850800B111A08500824196E07AECC
:1030C40066EF18F068EF18F069EF18F019801950DE
:1030D400D8B46FEF18F071EF18F086EF18F01928D4
:1030E400D8A477EF18F079EF18F081EF18F0000EFC
:1030F400056E000E066E000E076E000E086E078E3B
:10310400000E086E8EEF18F0000E056E000E066EAF
:10311400000E076E000E086E05500610071008100A
:10312400D8A497EF18F099EF18F0B1EF18F0000E4B
:10313400016E000E026E000E036E000E046E800E11
:1031440003127F0E04121150041201C001F002C0D8
:1031540002F003C003F004C004F0F4EF19F01850B7
:10316400D8A4B7EF18F0B9EF18F0C3EF18F0000EB9
:10317400016E000E026E000E036E000E046EF4EF7C
:1031840019F0195018C009F00A6A095E000E0A5AAB
:103194007F0E0924126E000E0A20136E01C00DF07A
:1031A40002C00EF003C00FF004C010F0000E016E58
:1031B400000E026E000E036E000E046E000E146EFE
:1031C400000E156E000E166E000E176E000E196EB0
:1031D40024EF19F01950D8B4F2EF18F0F4EF18F006
:1031E4000BEF19F0D8900D360E360F361036D890F6
:1031F400013602360336043617AE03EF19F005EF35
:1032040019F006EF19F00180D890143615361636E9
:10321400173605500D5C06500E5807500F580850CD
:103224001058D8A018EF19F01AEF19F023EF19F07D
:10323400178C05500D5E06500E5A07500F5A085051
:10324400105A192A190E19642AEF19F02CEF19F0E3
:10325400ECEF18F00D500E100F101010D8B435EF1D
:1032640019F037EF19F04FEF19F014804FEF19F000
:10327400D890013602360336043617AE44EF19F0FF
:1032840046EF19F047EF19F00180D890143615363F
:10329400163617361206D8A0130603AE54EF19F0EB
:1032A40056EF19F03AEF19F0000E196E17AE5DEFF4
:1032B40019F05FEF19F083EF19F0FF0E1414096E83
:1032C400FF0E15140A6EFF0E16140B6E7F0E1714E4
:1032D4000C6E09500A100B100C10D8B474EF19F0CE
:1032E40076EF19F07AEF19F0010E196E83EF19F0E9
:1032F40001A07FEF19F081EF19F083EF19F076EF59
:1033040019F01950D8B489EF19F08BEF19F0AFEF19
:1033140019F0010E0126000E02220322042204A049
:1033240096EF19F098EF19F0AFEF19F001C009F01A
:1033340002C00AF003C00BF004C00CF00C340C32D1
:103344000B320A32093209C001F00AC002F00BC084
:1033540003F00CC004F0124A132A13BEBAEF19F09A
:10336400135008E11228D8A0BAEF19F0BCEF19F0F5
:10337400C7EF19F0000E136E1268000E016E000EF6
:10338400026E000E036E000E046E13BED4EF19F02D
:10339400135006E11204D8B0D2EF19F0D4EF19F0AB
:1033A400E2EF19F0000E136E000E126E000E016EA5
:1033B400000E026E000E036E000E046E000E116EFF
:1033C40012C018F018A0E9EF19F0EBEF19F0EEEFC6
:1033D40019F0038EEFEF19F0039ED8901830046EA5
:1033E400A5EF18F012001EC036F01FC037F020C041
:1033F40038F021C039F022C03AF023C03BF024C099
:103404003CF025C03DF03DBE0AEF1AF00DEF1AF076
:10341400010E0EEF1AF0000E346E356A345035107A
:10342400D8B417EF1AF019EF1AF029EF1AF03D1E6D
:103434003C1E3B1E3A1E391E381E371E366C000ECB
:103444003722382239223A223B223C223D220001F3
:10345400EEBF2FEF1AF031EF1AF032EF1AF0EF93BC
:10346400EEBF3FEF1AF0EE5106E1ED05D8B03DEFA7
:103474001AF03FEF1AF045EF1AF0000E316E010E0C
:10348400306E49EF1AF0EDC030F0EEC031F0EBC011
:1034940032F0ECC033F034503510D8A454EF1AF0A5
:1034A40056EF1AF05DEF1AF0EFA55BEF1AF05DEF3F
:1034B4001AF060EF1AF03206D8A03306000E3F6E01
:1034C4004F0E3E6E000E01014F6FE5EF1AF03E06FF
:1034D400D8A03F06000E3E24D96E010E3F20DA6EBE
:1034E40036C001F037C002F038C003F039C004F030
:1034F4003AC005F03BC006F03CC007F03DC008F000
:103504000A0E096E000E0A6E000E0B6E000E0C6E93
:10351400000E0D6E000E0E6E000E0F6E000E106E7D
:10352400FCEC23F001C026F002C027F003C028F011
:1035340004C029F005C02AF006C02BF007C02CF007
:1035440008C02DF026C013F028C014F097EC2CF01E
:103554001350300FDF6E3006D8A031063206D8A0E3
:10356400330636C001F037C002F038C003F039C06A
:1035740004F03AC005F03BC006F03CC007F03DC083
:1035840008F00A0E096E000E0A6E000E0B6E000E95
:103594000C6E000E0D6E000E0E6E000E0F6E000E01
:1035A400106E75EC22F001C036F002C037F003C093
:1035B40038F004C039F005C03AF006C03BF007C04B
:1035C4003CF008C03DF03FBEF0EF1AF03F5008E178
:1035D4003E04D8A0F0EF1AF0F2EF1AF023EF1BF03C
:1035E40036503710381039103A103B103C103D104B
:1035F400D8A4FFEF1AF001EF1BF069EF1AF031BE07
:103604000EEF1BF0315006E13004D8B00CEF1BF084
:103614000EEF1BF069EF1AF033BE19EF1BF03350B5
:1036240008E13204D8A019EF1BF01BEF1BF023EFC5
:103634001BF00001EFB321EF1BF023EF1BF069EF48
:103644001AF034503510D8A42AEF1BF02CEF1BF0DD
:1036540034EF1BF00001EFA532EF1BF034EF1BF049
:1036640052EF1BF03E06D8A03F0634503510D8A4C4
:103674003EEF1BF040EF1BF046EF1BF0000E2F6EE9
:103684002B0E2E6E4AEF1BF0000E2F6E2D0E2E6E9B
:10369400000E3E24D96E010E3F20DA6E2EC0DFFFED
:1036A4001CC011F01DC012F0000E3E24136E010E5A
:1036B4003F20146E32C015F033C016F0FEEC28F033
:1036C40011C01CF012C01DF012000001EEBF6DEF1E
:1036D4001BF06FEF1BF070EF1BF0EF93EEBF7DEF6D
:1036E4001BF0EE5106E1ED05D8B07BEF1BF07DEF4A
:1036F4001BF083EF1BF0000E346E010E336E87EF68
:103704001BF0EDC033F0EEC034F0EBC035F0ECC08C
:1037140036F0EFA990EF1BF092EF1BF096EF1BF041
:10372400FE0E3526FF0E36221EC037F01FC038F0BD
:1037340020C039F021C03AF022C03BF023C03CF055
:1037440024C03DF025C03EF0000E406E4F0E3F6E8B
:10375400000E01014F6F62EF1CF03F06D8A0400637
:103764000F0E3714416E426A42BEC2EF1BF0425044
:1037740009E10A0E415CD8A0C2EF1BF0C4EF1BF0B4
:10378400CCEF1BF0570E4124416E000E4220426ED6
:10379400D2EF1BF0300E4124416E000E4220426EE7
:1037A400BF0E276EFF0E286E2650296E2A6A2750F8
:1037B400292628502A222A500AE11A0E295CD8A068
:1037C400E6EF1BF0E9EF1BF0010EEAEF1BF0000E31
:1037D4002F6E306A2F503010D8B4F3EF1BF0F5EF92
:1037E4001BF025EF1CF09F0E276EFF0E286E200E97
:1037F4004110296E000E42102A6E275029262850A7
:103804002A222A500AE11A0E295CD8A00CEF1CF0D7
:103814000FEF1CF0010E10EF1CF0000E316E326A37
:1038240031503210D8B419EF1CF01BEF1CF025EF07
:103834001CF041C007F042C008F07DEC2BF007C03B
:1038440041F008C042F0000E3F24D96E010E402022
:10385400DA6E41C0DFFF3306D8A034063506D8A09F
:10386400360637C027F038C028F039C029F03AC0EE
:103874002AF03BC02BF03CC02CF03DC02DF03EC0E4
:103884002EF0050E4FEF1CF0D8902E322D322C3234
:103894002B322A32293228322732E82E46EF1CF006
:1038A40027C037F028C038F029C039F02AC03AF0D0
:1038B4002BC03BF02CC03CF02DC03DF02EC03EF0A0
:1038C40040BE6EEF1CF0405009E1020E3F5CD8A0F0
:1038D4006EEF1CF070EF1CF0A1EF1CF037503810A5
:1038E40039103A103B103C103D103E10D8A47DEF27
:1038F4001CF07FEF1CF0AFEF1BF034BE8CEF1CF01C
:10390400345006E13304D8B08AEF1CF08CEF1CF07D
:10391400AFEF1BF036BE97EF1CF0365008E13504CC
:10392400D8A097EF1CF099EF1CF0A1EF1CF0000158
:10393400EFB39FEF1CF0A1EF1CF0AFEF1BF0000101
:10394400EFA9A7EF1CF0A9EF1CF0BFEF1CF03F0696
:10395400D8A04006000E3F24D96E010E4020DA6E36
:1039640026C0DFFF3F06D8A04006000E3F24D96ED4
:10397400010E4020DA6E300EDF6E1CC011F01DC047
:1039840012F0000E3F24136E010E4020146E35C059
:1039940015F036C016F0FEEC28F011C01CF012C071
:1039A4001DF01200D9C02AF0DAC02BF0DBC02CF0D5
:1039B400DCC02DF01AC02AF01BC02BF01CC02CF068
:1039C4001DC02DF0810E1E6EFF0E1F6E2AC020F04A
:1039D4002BC021F02CC022F02DC023F0180EF8EFDC
:1039E4001CF0D8902332223221322032E82EF3EF19
:1039F4001CF020501E24286E000E1F20296E29BEA4
:103A04000DEF1DF0295009E1170E285CD8A00DEF29
:103A14001DF00FEF1DF019EF1DF01AC01AF01BC0B6
:103A24001BF01CC01CF01DC01DF0DCEF1DF029BEF6
:103A34001EEF1DF020EF1DF090EF1DF028C01EF0CA
:103A4400FF0E1F6EFF0E206E7F0E216E000E226E83
:103A54001E662FEF1DF037EF1DF022342232213283
:103A640020321F321E2E2AEF1DF01FC024F020C06A
:103A740025F021C026F022C027F024502A141E6EFF
:103A840025502B141F6E26502C14206E27502D14F5
:103A9400216E1E501F1020102110D8A454EF1DF0C9
:103AA40056EF1DF058EF1DF00FEF1DF02AC01EF069
:103AB4002BC01FF02CC020F02DC021F0200E68EF89
:103AC4001DF0D890213220321F321E32E82E63EFCF
:103AD4001DF01E501F1020102110D8B474EF1DF0DB
:103AE40076EF1DF07EEF1DF024502A2625502B2260
:103AF40026502C2227502D22241C1E6E251C1F6E9E
:103B0400261C206E271C216E1E502A161F502B16B1
:103B140020502C1621502D16D4EF1DF02AC01EF073
:103B24002BC01FF02CC020F02DC021F0200EA0EFE0
:103B34001DF0D890213220321F321E32E82E9BEF26
:103B44001DF01E501F1020102110D8A4ACEF1DF042
:103B5400AEEF1DF0B8EF1DF0000E2A6E000E2B6EB6
:103B6400000E2C6E000E2D6ED4EF1DF0D8902A346A
:103B74001E6E2B341F6E2C34206E2D34216E1E507D
:103B84001F1020102110D8B4CAEF1DF0CCEF1DF087
:103B9400D4EF1DF0000E2A6E000E2B6E800E2C6EDC
:103BA400BF0E2D6E2AC01AF02BC01BF02CC01CF0C7
:103BB4002DC01DF012000001EEBFE3EF1DF0E5EF94
:103BC4001DF0E6EF1DF0EF93EEBFF3EF1DF0EE51A5
:103BD40006E1ED05D8B0F1EF1DF0F3EF1DF0F9EFBC
:103BE4001DF0000E2F6E010E2E6EFDEF1DF0EDC0C8
:103BF4002EF0EEC02FF0EBC030F0ECC031F01EC060
:103C040032F01FC033F020C034F021C035F022C0A0
:103C140036F023C037F024C038F025C039F0000E48
:103C24003B6E4F0E3A6E000E01014F6F90EF1EF087
:103C34003A06D8A03B06000E3A24D96E010E3B206A
:103C4400DA6E32C001F033C002F034C003F035C084
:103C540004F036C005F037C006F038C007F039C0AC
:103C640008F00A0E096E000E0A6E000E0B6E000EAE
:103C74000C6E000E0D6E000E0E6E000E0F6E000E1A
:103C8400106E31EC28F001C026F002C027F003C00A
:103C940028F004C029F005C02AF006C02BF007C0A4
:103CA4002CF008C02DF02650300FDF6E2E06D8A061
:103CB4002F063006D8A0310632C001F033C002F01E
:103CC40034C003F035C004F036C005F037C006F048
:103CD40038C007F039C008F00A0E096E000E0A6EEB
:103CE400000E0B6E000E0C6E000E0D6E000E0E6EAE
:103CF400000E0F6E000E106E4DEC27F001C032F076
:103D040002C033F003C034F004C035F005C036F00F
:103D140006C037F007C038F008C039F03A503B10FD
:103D2400D8B497EF1EF099EF1EF0CAEF1EF0325090
:103D34003310341035103610371038103910D8A419
:103D4400A6EF1EF0A8EF1EF01AEF1EF02FBEB5EF7F
:103D54001EF02F5006E12E04D8B0B3EF1EF0B5EFDD
:103D64001EF01AEF1EF031BEC0EF1EF0315008E114
:103D74003004D8A0C0EF1EF0C2EF1EF0CAEF1EF050
:103D84000001EFB3C8EF1EF0CAEF1EF01AEF1EF0E9
:103D94001CC011F01DC012F0000E3A24136E010E67
:103DA4003B20146E30C015F031C016F0FEEC28F044
:103DB40011C01CF012C01DF01200000E0F013B6F69
:103DC400000E956E700ED31292803881000EC26E72
:103DD400C280F30EC116FC0EC116C050C70B1009E9
:103DE400C06EC08EC050F80B0509C06EAFEC2AF04F
:103DF400010E046E010EE9EC2AF0010E056E060EAA
:103E0400066E70EC2AF0010E046E020EE9EC2AF044
:103E14000C0E056E060E066E70EC2AF0100E046E83
:103E2400010EE9EC2AF0600E056E060E066E70ECCB
:103E34002AF0100E046E020EE9EC2AF05E0E056EF6
:103E4400060E066E70EC2AF0C282BEEF1FF0000E62
:103E54000001FA6F000EF96FC3CFF9F0FA6BC4508A
:103E64005E6E5D6AF9515D10F96FFA515E10FA6F7A
:103E7400F9C001F0FAC002F0000E02BEFF0E036E9C
:103E8400046E010ED3EC20F001C00FF002C010F05C
:103E940003C011F004C012F02E0E136E900E146EB7
:103EA400A00E156E3B0E166E13EC16F00FC0E5F067
:103EB40010C0E6F011C0E7F012C0E8F0E5C00FF062
:103EC400E6C010F0E7C011F0E8C012F06F0E136EF8
:103ED400120E146E830E156E3A0E166E13EC16F057
:103EE4000FC0E1F010C0E2F011C0E3F012C0E4F042
:103EF400F30E0001CB6F000ECC6F000ECE6F060EDA
:103F0400CD6F5B0ECF6F060ED06FE5C0D1F0E6C06B
:103F1400D2F0E7C0D3F0E8C0D4F07CEC2DF00A0E68
:103F2400046E010EE9EC2AF0F30E056E000E066E27
:103F340070EC2AF0500E0001CB6F010ECC6F000E16
:103F4400CE6F060ECD6F5B0ECF6F060ED06FE1C045
:103F5400D1F0E2C0D2F0E3C0D3F0E4C0D4F07CEC02
:103F64002DF00A0E046E020EE9EC2AF0500E056ED6
:103F7400010E066E70EC2AF0C2B2C3EF1FF0C5EF5B
:103F84001FF029EF1FF083BECAEF1FF0CDEF1FF023
:103F9400010ECEEF1FF0000EFF0A5D6E5D325D3242
:103FA40083505D187F0B5D18836E26EF1FF000EFC2
:103FB40000F00001EEBFE1EF1FF0E3EF1FF0E4EFCC
:103FC4001FF0EF93EEBFF1EF1FF0EE5106E1ED05A8
:103FD400D8B0EFEF1FF0F1EF1FF0F7EF1FF0000E76
:103FE4002F6E010E2E6EFBEF1FF0EDC02EF0EEC013
:103FF4002FF0EBC032F0ECC033F01EC034F01FC021
:1040040035F020C036F021C037F022C038F023C08C
:1040140039F024C03AF025C03BF0000E3D6E4F0E3F
:104024003C6E000E01014F6F000E316E000E306EBB
:1040340061EF20F03C06D8A03D06070E3414306E24
:10404400316A000E3C24D96E010E3D20DA6E3050E8
:10405400300FDF6E2E06D8A02F063206D8A0330606
:1040640034C026F035C027F036C028F037C029F018
:1040740038C02AF039C02BF03AC02CF03BC02DF0E8
:10408400040E4EEF20F0D8902D322C322B322A32EF
:104094002932283227322632E82E45EF20F026C076
:1040A40034F027C035F028C036F029C037F02AC0D4
:1040B40038F02BC039F02CC03AF02DC03BF03DBE97
:1040C4006CEF20F03D5008E13C04D8A06CEF20F0E8
:1040D4006EEF20F09FEF20F034503510361037107B
:1040E400381039103A103B10D8A47BEF20F07DEF44
:1040F40020F01CEF20F02FBE8AEF20F02F5006E1B5
:104104002E04D8B088EF20F08AEF20F01CEF20F0C6
:1041140033BE95EF20F0335008E13204D8A095EF78
:1041240020F097EF20F09FEF20F00001EFB39DEF18
:1041340020F09FEF20F01CEF20F00001EFA9A5EF85
:1041440020F0A7EF20F0BEEF20F030503110D8B4AB
:10415400AEEF20F0B0EF20F0BEEF20F03C06D8A088
:104164003D06000E3C24D96E010E3D20DA6E300E61
:10417400DF6E3206D8A033061CC011F01DC012F049
:10418400000E3C24136E010E3D20146E32C015F057
:1041940033C016F0FEEC28F011C01CF012C01DF064
:1041A4001200096E0950D8B4DAEF20F0DCEF20F0E9
:1041B400FEEF20F004BEE3EF20F0E1EF20F0FEEF8D
:1041C40020F001C005F002C006F003C007F004C0EF
:1041D40008F0051E061E071E081E052A000E0622EC
:1041E4000722082205C00BF006C00CF007C00DF032
:1041F40008C00EF006EF21F001C00BF002C00CF075
:1042040003C00DF004C00EF001500210031004109E
:10421400D8A40FEF21F011EF21F01BEF21F0000ED5
:10422400016E000E026E000E036E000E046EACEF03
:1042340021F0960E0A6E25EF21F00A2AD8900E324C
:104244000D320C320B32000E0B14056E000E0C14E2
:10425400066E000E0D14076EFE0E0E14086E055049
:10426400061007100810D8A43AEF21F03CEF21F013
:104274001FEF21F04AEF21F00A2A010E0B26000E4F
:104284000C220D220E22D8900E320D320C320B323B
:10429400000E0B14056E000E0C14066E000E0D14A9
:1042A400076EFF0E0E14086E055006100710081056
:1042B400D8A45FEF21F061EF21F03EEF21F069EF28
:1042C40021F00A06D8900B360C360D360E360DBE8C
:1042D4006EEF21F070EF21F078EF21F0020E0A600A
:1042E40076EF21F078EF21F063EF21F00AB07DEF53
:1042F40021F07FEF21F080EF21F00D9ED8900A325B
:104304000AC005F0066A076A086A05C008F0076A69
:10431400066A056A05500B1206500C1207500D125E
:1043240008500E120950D8B49AEF21F09CEF21F0F6
:10433400A4EF21F004BEA3EF21F0A1EF21F0A4EF3C
:1043440021F00E8E0BC001F00CC002F00DC003F082
:104354000EC004F01200000E166E000E156E000E54
:104364000F6E000E0E6EB9EF21F0084A092A010EF5
:10437400146E08C0F6FF09C0F7FF0800F550200AC4
:10438400D8B4C7EF21F0C9EF21F0E6EF21F0F70E22
:104394000A6EFF0E0B6E08C0F6FF09C0F7FF080097
:1043A400F5500C6E0D6A0A500C260B500D220D5060
:1043B40009E1050E0C5CD8A0E2EF21F0E4EF21F056
:1043C400E6EF21F0000E146E14C010F0116A1050C4
:1043D4001110D8A4F0EF21F0F2EF21F0B7EF21F0A3
:1043E400FCEF21F0000E0F6E010E0E6E084A092A32
:1043F40031EF22F008C0F6FF09C0F7FF0800F550BE
:104404000A6E0B6A0B50000AD8B40BEF22F031EF9E
:1044140022F00A502B0AD8B4F8EF21F0060AD8B4D7
:10442400F4EF21F031EF22F015C001F016C002F0D4
:10443400000E046E0A0E036E94EC2DF008C0F6FF15
:1044440009C0F7FF0800F550015E000E025A300E55
:104454000124156E000E0220166EF8EF21F0D00E26
:104464000A6EFF0E0B6E08C0F6FF09C0F7FF0800C6
:10447400F5500C6E0D6A0A500C260B500D220D508F
:104484000AE10A0E0C5CD8A04AEF22F04DEF22F0AC
:10449400010E4EEF22F0000E126E136A125013102A
:1044A400D8A457EF22F059EF22F016EF22F00E5065
:1044B4000F10D8A460EF22F062EF22F070EF22F028
:1044C40015C00AF016C00BF00A1E0B1E0A4A0B2A6E
:1044D4000AC008F00BC009F074EF22F015C008F010
:1044E40016C009F01200000E126E10BE7EEF22F00C
:1044F4007CEF22F090EF22F0101E0F1E0E1E0D1EF8
:104504000C1E0B1E0A1E096C000E0A220B220C2222
:104514000D220E220F221022010E126E08BE97EFFA
:1045240022F095EF22F0A9EF22F0081E071E061EC6
:10453400051E041E031E021E016C000E022203222D
:1045440004220522062207220822010E121A20EE56
:1045540013F0070EDE6AE806FDE209500A100B109C
:104564000C100D100E100F101010D8B4BCEF22F068
:10457400BEEF22F010EF23F0010E116ECCEF22F00B
:10458400D89009360A360B360C360D360E360F36F1
:104594001036112A10AED1EF22F0D3EF22F0C2EF81
:1045A40022F0D890133614361536163617361836C8
:1045B40019361A360950015C0A5002580B50035838
:1045C4000C5004580D5005580E5006580F500758FB
:1045D40010500858D8A0F1EF22F0F3EF22F004EFC6
:1045E40023F00950015E0A50025A0B50035A0C5032
:1045F400045A0D50055A0E50065A0F50075A1050BF
:10460400085A1380D89010320F320E320D320C3209
:104614000B320A320932112ED3EF22F01250D8B4E1
:1046240016EF23F018EF23F028EF23F01A1E191EBB
:10463400181E171E161E151E141E136C000E1422AF
:10464400152216221722182219221A2213C001F049
:1046540014C002F015C003F016C004F017C005F032
:1046640018C006F019C007F01AC008F0120021EEB5
:1046740056F010EE0FF0060EDBCFE3FFE806FCE287
:104684000CC01AF00DC01BF01A501B10D8A44DEF2B
:1046940023F04FEF23F053EF23F00F0E1A6E000EAA
:1046A4001B6E1AC001F01BC002F061EC2DF001C0BA
:1046B4001EF002C01FF0EDC01CF0EEC01DF01DBEC8
:1046C40066EF23F068EF23F07DEF23F01E501C5CAF
:1046D4001D50800A0E6E1F50800A0E58D8A075EF28
:1046E40023F077EF23F079EF23F07DEF23F01CC064
:1046F4001EF01DC01FF01EC01CF01FC01DF0EBC03B
:1047040018F0ECC019F00001EFB18BEF23F08DEF3E
:1047140023F0AAEF23F09BEF23F0000E026E200E8D
:10472400016E0AC003F00BC004F099EC28F01E4A95
:104734001F2A18501E5C1F50800A0E6E1950800AE2
:104744000E58D8A0A8EF23F0AAEF23F08FEF23F0A0
:10475400000E176E000E166EC3EF23F01AC0D9FFB9
:104764001BC0DAFFDF500E6E0E50016E026A0AC0E3
:1047740003F00BC004F099EC28F01A4A1B2A164ADD
:10478400172A1C50165C1750800A0E6E1D50800AA2
:104794000E58D8A0D0EF23F0D2EF23F0B0EF23F0DF
:1047A4000001EFA1D8EF23F0DAEF23F0F7EF23F0C5
:1047B400E8EF23F0000E026E200E016E0AC003F033
:1047C4000BC004F099EC28F01E4A1F2A18501E5CF6
:1047D4001F50800A0E6E1950800A0E58D8A0F5EFAB
:1047E40023F0F7EF23F0DCEF23F01EC00AF01FC024
:1047F4000BF01200000E126E08BE05EF24F003EF5A
:1048040024F017EF24F0081E071E061E051E041EC2
:10481400031E021E016C000E022203220422052242
:10482400062207220822010E126E10BE1EEF24F08B
:104834001CEF24F02EEF24F0101E0F1E0E1E0D1E72
:104844000C1E0B1E0A1E096C000E0A220B220C22DF
:104854000D220E220F22102209500A100B100C10E8
:104864000D100E100F101010D8B43BEF24F03DEFD4
:1048740024F085EF24F0010E116E4BEF24F0D89054
:1048840009360A360B360C360D360E360F36103610
:10489400112A10AE50EF24F052EF24F041EF24F02F
:1048A4000950015C0A5002580B5003580C5004582C
:1048B4000D5005580E5006580F5007581050085800
:1048C400D8A067EF24F069EF24F079EF24F00950C1
:1048D400015E0A50025A0B50035A0C50045A0D50F0
:1048E400055A0E50065A0F50075A1050085AD890BD
:1048F40010320F320E320D320C320B320A320932C0
:10490400112E52EF24F01250D8B48BEF24F08DEF17
:1049140024F09DEF24F0081E071E061E051E041E2B
:10492400031E021E016C000E022203220422052231
:1049340006220722082201C001F002C002F003C0CF
:1049440003F004C004F005C005F006C006F007C07B
:1049540007F008C008F01200800E585CD8A0B5EF2C
:1049640024F0B7EF24F0C0EF24F0000E0001F26F42
:104974004B0EF16F556856683BEF25F055C0C5F0F6
:1049840056C0C6F0585009E1020E575CD8A0CDEFCE
:1049940024F0CFEF24F0DCEF24F0FF0E57240001C5
:1049A400C96FFF0E5820CA6F000EC86F000EC76F84
:1049B400E5EF24F0000E0001CA6F010EC96F000E6E
:1049C400C86F010EC76FC50E4D6E000E4E6E59C0F6
:1049D4004FF05AC050F05BC051F05CC052F01CEC78
:1049E4002BF04DC0C3F04EC0C4F057505810D8B48B
:1049F400FEEF24F000EF25F037EF25F00001C4BFEF
:104A040006EF25F008EF25F037EF25F0FF0EBC6F19
:104A1400FF0EBD6F57C0BEF058C0BFF0BC51BE27DB
:104A2400BD51BF23BE51C35DC451800AC06FBF5185
:104A3400800AC059D8A021EF25F023EF25F02BEFF1
:104A440025F0FF0E5724C16FFF0E5820C26F2FEFC1
:104A540025F0C3C0C1F0C4C0C2F0C1515524D96E01
:104A6400C2515620DA6E000EDF6EC3C055F0C4C0CA
:104A740056F0120001C008F002C009F003C00AF0A9
:104A840004C00BF00506D8A00606052806E1062892
:104A9400D8A44FEF25F051EF25F05EEF25F0000E7E
:104AA400026E000E016EC8EF25F0084A092A0A4A70
:104AB4000B2A0506D8A0060608C0F6FF09C0F7FFB2
:104AC400F86A050EF76403D00800F55005D0F6CF58
:104AD400E1FFF7CFE2FFE7500009D8B474EF25F007
:104AE40076EF25F0ACEF25F00AC0F6FF0BC0F7FF18
:104AF4000800F5500009D8B482EF25F084EF25F0C2
:104B0400ACEF25F005500610D8B48BEF25F08DEFEF
:104B140025F0ACEF25F00AC0F6FF0BC0F7FF080044
:104B2400F5CF07F008C0F6FF09C0F7FFF86A050ED5
:104B3400F76403D00800F55005D0F6CFE1FFF7CFB6
:104B4400E2FFE7500718D8B4AAEF25F0ACEF25F040
:104B540057EF25F008C0F6FF09C0F7FFF86A050E05
:104B6400F76403D00800F55005D0F6CFE1FFF7CF86
:104B7400E2FFE750076E0AC0F6FF0BC0F7FF08001C
:104B8400F550075C016E026AD8A0020612000334D5
:104B940004340A6E0A50D8A4D2EF25F0D4EF25F0DD
:104BA400DEEF25F0000E016E000E026E000E036EA5
:104BB400000E046E4BEF26F001C005F002C006F0B3
:104BC40003C007F004C008F0200EEEEF25F0D890E3
:104BD4000832073206320532E82EE9EF25F0055097
:104BE400096E038EFF0E0116FF0E0216FF0E03164A
:104BF400000E0416960E0A5E0ABE05EF26F003EFB9
:104C040026F01BEF26F00A50800A970FD8B00DEF5C
:104C140026F00FEF26F011EF26F0D4EF25F0D89010
:104C240004320332023201320A3E11EF26F033EF2E
:104C340026F01F0E0A6421EF26F023EF26F02BEF57
:104C440026F0D4EF25F0D890013602360336043628
:104C54000A060A50D8A431EF26F033EF26F025EFE8
:104C640026F00950D8B439EF26F03BEF26F043EF95
:104C740026F0041E031E021E016C000E02220322F3
:104C8400042201C001F002C002F003C003F004C01A
:104C940004F01200000E2814306E000E2914316E38
:104CA400800E2A14326E7F0E2B14336E3050311066
:104CB40032103310D8A461EF26F063EF26F06BEFC7
:104CC40026F0000E286E000E296E000E2A6E000ECD
:104CD4002B6E000E2C14306E000E2D14316E800ECF
:104CE4002E14326E7F0E2F14336E3050311032106A
:104CF4003310D8A480EF26F082EF26F08AEF26F056
:104D0400000E2C6E000E2D6E000E2E6E000E2F6EF9
:104D14002BAE8FEF26F091EF26F09AEF26F0286C59
:104D2400291ED8B0292A2A1ED8B02A2A800E2B562A
:104D34002FAE9FEF26F0A1EF26F0AAEF26F02C6C01
:104D44002D1ED8B02D2A2E1ED8B02E2A800E2F56F6
:104D5400000E281A000E291A000E2A1A800E2B1A89
:104D6400000E2C1A000E2D1A000E2E1A800E2F1A69
:104D74002C50285C2D5029582E502A582F502B582F
:104D8400D8B0C7EF26F0C9EF26F0CCEF26F0D890C4
:104D9400CDEF26F0D8801200DDC00BF0DEC00CF0A1
:104DA400DFC00DF0E0C00EF001C00BF002C00CF04B
:104DB40003C00DF004C00EF00BC005F00CC006F0EB
:104DC4000DC007F00EC008F0180EEEEF26F0D890D4
:104DD4000832073206320532E82EE9EF26F0055094
:104DE400096E0A6A09500A10D8A4FBEF26F0FDEFF9
:104DF40026F01DEF27F0D8900B34056E0C34066EA8
:104E04000D34076E0E34086E055006100710081096
:104E1400D8A40FEF27F011EF27F017EF27F0000EBB
:104E2400026E020E016E4CEF27F0000E026E030EAE
:104E3400016E4CEF27F009280A10D8A424EF27F0BC
:104E440026EF27F048EF27F00BC005F00CC006F062
:104E54000DC007F00EC008F0090ED89005360636CE
:104E640007360836E82E2FEF27F0055006100710F6
:104E74000810D8B440EF27F043EF27F0010E44EFB9
:104E840027F0000E016E026A4CEF27F0000E026E4E
:104E9400040E016E120020EE11F0070EDE6AE80621
:104EA400FDE209500A100B100C100D100E100F101B
:104EB4001010D8B460EF27F062EF27F0B4EF27F0BA
:104EC400010E196E70EF27F0D89009360A360B36AA
:104ED4000C360D360E360F361036192A10AE75EF15
:104EE40027F077EF27F066EF27F0D89011361236C7
:104EF4001336143615361636173618360950015C33
:104F04000A5002580B5003580C5004580D500558C1
:104F14000E5006580F50075810500858D8A095EF57
:104F240027F097EF27F0A8EF27F00950015E0A5009
:104F3400025A0B50035A0C50045A0D50055A0E5085
:104F4400065A0F50075A1050085A1180D890103240
:104F54000F320E320D320C320B320A320932192E54
:104F640077EF27F011C001F012C002F013C003F074
:104F740014C004F015C005F016C006F017C007F001
:104F840018C008F012000001EB51EC11D8A4CDEFC9
:104F940027F0CFEF27F0D5EF27F0EBC010F0ECC0EF
:104FA40011F0DBEF27F0FF0EEB25106EFF0EEC2166
:104FB400116EEFA1E0EF27F0E2EF27F0EBEF27F01F
:104FC4000CC001F0026A0AC003F00BC004F099ECB3
:104FD40028F011BEF0EF27F0F2EF27F0F4EF27F0FE
:104FE400F8EF27F0000E116E000E106E000E0F6E1B
:104FF400000E0E6E0AEF28F0000E026E200E016EF7
:105004000AC003F00BC004F099EC28F00E4A0F2AF2
:1050140010500E5C0F50800A0D6E1150800A0D580E
:10502400D8A017EF28F019EF28F0FEEF27F00001C1
:10503400EFB11FEF28F021EF28F02AEF28F00CC081
:1050440001F0026A0AC003F00BC004F099EC28F0E6
:10505400010E0E240A6E000E0F200B6E1200095072
:105064000A100B100C100D100E100F101010D8B4E5
:105074003EEF28F040EF28F088EF28F0010E116E83
:105084004EEF28F0D89009360A360B360C360D361A
:105094000E360F361036112A10AE53EF28F055EFA6
:1050A40028F044EF28F00950015C0A5002580B50D4
:1050B40003580C5004580D5005580E5006580F5004
:1050C400075810500858D8A06AEF28F06CEF28F061
:1050D4007CEF28F00950015E0A50025A0B50035A23
:1050E4000C50045A0D50055A0E50065A0F50075AC8
:1050F4001050085AD89010320F320E320D320C3242
:105104000B320A320932112E55EF28F001C001F09A
:1051140002C002F003C003F004C004F005C005F0AF
:1051240006C006F007C007F008C008F012000350DC
:105134000410D8B4A0EF28F0A2EF28F0ABEF28F0C9
:1051440003500410D8A4A9EF28F0ABEF28F0B0EF77
:1051540028F00150BBEC2DF0FDEF28F020EE04F018
:105164000350D9260450DA22DE50DE10D8B4BDEF45
:1051740028F0BFEF28F0DAEF28F020EE04F0035017
:10518400D9260450DA2210EE02F00350E12604502E
:10519400E222DE50E65CE650800A096EDE50800AA8
:1051A4000958D8B0D8EF28F0DAEF28F0FDEF28F04E
:1051B40020EE02F00350D9260450DA22DECF05F0A7
:1051C400DDCF06F003C0D9FF04C0DAFFDECF07F05D
:1051D400DDCF08F005500724D96E06500820DA6E9A
:1051E40001C0DFFF20EE02F00350D9260450DA227A
:1051F400DE2A000EDD2212000001EFA104EF29F0E7
:1052040006EF29F010EF29F013C00AF014C00BF0D8
:1052140011C00CF012C00DF054EC2CF016BE15EFBA
:1052240029F017EF29F01DEF29F015C01AF016C068
:105234001BF021EF29F0000E1B6E000E1A6E000EFB
:10524400196E000E186E33EF29F0000E026E200E58
:10525400016E11C003F012C004F099EC28F0184A52
:10526400192A1A50185C1950800A176E1B50800AAC
:105274001758D8A040EF29F042EF29F027EF29F082
:105284000001EFB148EF29F04AEF29F054EF29F07B
:1052940013C00AF014C00BF011C00CF012C00DF0D2
:1052A40054EC2CF013C001F014C002F061EC2DF0AA
:1052B4001A500124116E1B500220126E1200000EAF
:1052C400066E04BE6AEF29F068EF29F070EF29F04A
:1052D400036C041ED8B0042A010E066E02BE77EFDA
:1052E40029F075EF29F07DEF29F0016C021ED8B08A
:1052F400022A010E061A000E086E000E076E0350F5
:105304000410D8B488EF29F08AEF29F0B2EF29F01D
:10531400010E056E92EF29F0D89003360436052A63
:1053240004AE97EF29F099EF29F08EEF29F0D89089
:10533400073608360350015C04500258D8A0A5EF84
:1053440029F0A7EF29F0ACEF29F00350015E0450D7
:10535400025A0780D89004320332052E99EF29F0BF
:105364000650D8B4B8EF29F0BAEF29F0BEEF29F00F
:10537400076C081ED8B0082A07C001F008C002F064
:105384001200000E066E02BECCEF29F0CAEF29F01F
:10539400D2EF29F0016C021ED8B0022A010E066E6B
:1053A40004BED9EF29F0D7EF29F0DDEF29F0036C23
:1053B400041ED8B0042A03500410D8B4E4EF29F032
:1053C400E6EF29F00AEF2AF0010E056EEEEF29F060
:1053D400D89003360436052A04AEF3EF29F0F5EF2E
:1053E40029F0EAEF29F00350015C04500258D8A0D8
:1053F400FEEF29F000EF2AF004EF2AF00350015EDB
:105404000450025AD89004320332052EF5EF29F0E5
:105414000650D8B410EF2AF012EF2AF016EF2AF053
:10542400016C021ED8B0022A01C001F002C002F0D1
:105434001200000E0114096E000E02140A6E800E92
:1054440003140B6E7F0E04140C6E09500A100B101B
:105454000C10D8A430EF2AF032EF2AF03AEF2AF0F9
:10546400000E016E000E026E000E036E000E046E3E
:10547400000E0514096E000E06140A6E800E071441
:105484000B6E7F0E08140C6E09500A100B100C10D2
:10549400D8A44FEF2AF051EF2AF059EF2AF0000E6A
:1054A400056E000E066E000E076E000E086E0550A7
:1054B40001180FE1065002180CE10750031809E126
:1054C40008500418D8B469EF2AF06BEF2AF06EEF95
:1054D4002AF0D8906FEF2AF0D8801200000E0A6EDE
:1054E400000E096E90EF2AF009500524076E0A5049
:1054F4000620086E07C0F6FF08C0F7FFF86A050E1D
:10550400F76403D00800F55005D0F6CFE1FFF7CFDC
:10551400E2FFE75045EC2DF0094A0A2A0950052418
:10552400076E0A500620086E07C0F6FF08C0F7FF92
:10553400F86A050EF76403D00800F55005D0F6CFDD
:10554400E1FFF7CFE2FFE7500009D8A4ACEF2AF05F
:10555400AEEF2AF076EF2AF01200000EDAEC2BF010
:10556400680E046EE40EE82EFED7042EFCD700D09D
:10557400030EA7EC2DF01A0E046EF80EE82EFED7DB
:10558400042EFCD700D0030EA7EC2DF03A0E046EC7
:10559400230EE82EFED7042EFCD700F0030EA7EC52
:1055A4002DF0020EA7EC2DF0020EA7EC2DF0080E44
:1055B400A7EC2DF0000EA7EC2DF00C0EA7EC2DF0AF
:1055C400000EA7EC2DF0060EA7EC2DF01200056ED0
:1055D4000504D8A4F0EF2AF0F2EF2AF003EF2BF041
:1055E40004507F0F086E08380F0B066E08500F0B1F
:1055F400076E0650A7EC2DF00750A7EC2DF01BEF1B
:105604002BF0020E0518D8A40AEF2BF00CEF2BF0A8
:105614001BEF2BF00450BF0F086E08380F0B066EFB
:1056240008500F0B076E0650A7EC2DF00750A7EC9F
:105634002DF012004FC053F050C054F0000E000182
:10564400EA6F000EE96F3AEF2BF04DC043F04EC005
:1056540044F0530E456E000E466E51C047F052C0E2
:1056640048F032EC03F043500001E9274450EA23A8
:1056740053C0F6FF54C0F7FF0800F5500009D8A442
:1056840046EF2BF048EF2BF027EF2BF0E9C04DF05D
:10569400EAC04EF01200BF0E096EFF0E0A6E07C07C
:1056A4000BF008C00CF009500B260A500C220C50C9
:1056B4000AE11A0E0B5CD8A062EF2BF065EF2BF019
:1056C400010E66EF2BF0000E0D6E0E6A0D500E10DB
:1056D400D8B46FEF2BF071EF2BF078EF2BF0200E96
:1056E4000710076E0850086E7CEF2BF007C007F018
:1056F40008C008F012009F0E096EFF0E0A6E07C064
:105704000BF008C00CF009500B260A500C220C5068
:105714000AE11A0E0B5CD8A092EF2BF095EF2BF058
:10572400010E96EF2BF0000E0D6E0E6A0D500E104A
:10573400D8B49FEF2BF0A1EF2BF0A7EF2BF05F0E67
:105744000714076E086AABEF2BF007C007F008C018
:1057540008F0120003C007F004C008F001C009F00B
:1057640002C00AF00750056E0850066E074A082A60
:1057740005C0F6FF06C0F7FFF86A09C0D9FF0AC0E2
:10578400DAFF094A0A2A050EF76403D00800F55027
:1057940005D0F6CFE1FFF7CFE2FFE750DF6EDF5031
:1057A400D8A4D7EF2BF0D9EF2BF0B4EF2BF01200E5
:1057B400016E01A0E0EF2BF0E2EF2BF0E5EF2BF010
:1057C4008380E6EF2BF0839001A2EBEF2BF0EDEF5B
:1057D4002BF0F0EF2BF08382F1EF2BF0839201A4F6
:1057E400F6EF2BF0F8EF2BF0FBEF2BF08384FCEFBC
:1057F4002BF0839401A601EF2CF003EF2CF006EFBD
:105804002CF0838607EF2CF083961200010E076EAE
:10581400200E01180210D8B412EF2CF014EF2CF063
:105824002DEF2CF0F70E036EFF0E046E01C005F091
:1058340002C006F00350052604500622065009E172
:10584400050E055CD8A029EF2CF02BEF2CF02DEFE2
:105854002CF0000E076E07C001F0026A1200000E61
:105864002C1A000E2D1A000E2E1A800E2F1A28C084
:1058740001F029C002F02AC003F02BC004F02CC0B0
:1058840005F02DC006F02EC007F02FC008F0B3ECD1
:1058940013F001C028F002C029F003C02AF004C0AC
:1058A4002BF01200000E106E000E0F6E65EF2CF040
:1058B4000EC001F0026A0CC003F00DC004F099ECB4
:1058C40028F00F4A102A0F500A24D96E10500B20CA
:1058D400DA6EDF500E6E0E50D8A473EF2CF075EF15
:1058E4002CF05AEF2CF012006E0EF66E5B0EF76E73
:1058F400000EF86E01EE56F010EE07F00900F5CF39
:10590400EEFFE550E150FAE101EE00F0560EEE6ACA
:10591400E806FDE100EED9F0220EEE6AE806FDE1AC
:10592400000EF86E0001DFEF1EF014BEA4EF2CF0A1
:10593400145006E11304D8B0A2EF2CF0A4EF2CF01D
:10594400B2EF2CF013C015F014C016F0151E161E7D
:10595400154A162A15C013F016C014F0B6EF2CF031
:1059640013C013F014C014F012009F0E036EFF0E48
:10597400046E200E0110056E000E0210066E035018
:1059840005260450062206500AE11A0E055CD8A02A
:10599400CEEF2CF0D1EF2CF0010ED2EF2CF0000E54
:1059A400016E026A12009F0E036EFF0E046E01C0A8
:1059B40005F002C006F003500526045006220650E6
:1059C4000AE11A0E055CD8A0EAEF2CF0EDEF2CF0FA
:1059D400010EEEEF2CF0000E016E026A1200BF0EF3
:1059E400036EFF0E046E01C005F002C006F0035002
:1059F40005260450062206500AE11A0E055CD8A0BA
:105A040006EF2DF009EF2DF0010E0AEF2DF0000E38
:105A1400016E026A12000150021003100410D8B47F
:105A240016EF2DF018EF2DF020EF2DF0000E011AD7
:105A3400000E021A000E031A800E041A01C001F0AF
:105A440002C002F003C003F004C004F01200D00E40
:105A5400036EFF0E046E01C005F002C006F0035091
:105A640005260450062206500AE10A0E055CD8A059
:105A74003EEF2DF041EF2DF0010E42EF2DF0000E20
:105A8400016E026A1200046E04500F0B026E045081
:105A9400F00B036E838803380F0BDAEC2BF0838A48
:105AA400350EE82EFED700F0839A0250DAEC2BF084
:105AB400838A350EE82EFED700F0839A120001C0C7
:105AC40003F002C004F069EF2DF0014A022A01C07C
:105AD400D9FF02C0DAFFDF50D8A473EF2DF075EFC1
:105AE4002DF067EF2DF00350015C016E0450025855
:105AF400026E1200D10E0001D76F000ED86FCBC01A
:105B040055F0CCC056F0CDC057F0CEC058F0CFC041
:105B140059F0D0C05AF0D70E5B6E000E5C6EAEEC3E
:105B240024F0120001500302F3CF05F0F4CF06F085
:105B340001500402F350062602500302F3500626D5
:105B440005C001F006C002F01200036E83980350F2
:105B5400DAEC2BF0838A150E026EC60EE82EFED701
:105B6400022EFCD700D0839A1200286E756C6C2923
:015B74000030
:025B760012001B
:020000040020DA
:08000000FFFFFFFFFFFFFFFF00
:020000040030CA
:0E000000FF291F3CFF3F85FF0FC00FE00F40A0
:00000001FF
